{
  "_format": "hh-sol-artifact-1",
  "contractName": "PancakeRouter",
  "sourceName": "contracts/PancakeRouter.sol",
  "abi": [
    {
      "inputs": [
        {
          "internalType": "address",
          "name": "_factory",
          "type": "address"
        },
        {
          "internalType": "address",
          "name": "_WETH",
          "type": "address"
        }
      ],
      "stateMutability": "nonpayable",
      "type": "constructor"
    },
    {
      "inputs": [],
      "name": "WETH",
      "outputs": [
        {
          "internalType": "address",
          "name": "",
          "type": "address"
        }
      ],
      "stateMutability": "view",
      "type": "function"
    },
    {
      "inputs": [
        {
          "internalType": "address",
          "name": "tokenA",
          "type": "address"
        },
        {
          "internalType": "address",
          "name": "tokenB",
          "type": "address"
        },
        {
          "internalType": "uint256",
          "name": "amountADesired",
          "type": "uint256"
        },
        {
          "internalType": "uint256",
          "name": "amountBDesired",
          "type": "uint256"
        },
        {
          "internalType": "uint256",
          "name": "amountAMin",
          "type": "uint256"
        },
        {
          "internalType": "uint256",
          "name": "amountBMin",
          "type": "uint256"
        },
        {
          "internalType": "address",
          "name": "to",
          "type": "address"
        },
        {
          "internalType": "uint256",
          "name": "deadline",
          "type": "uint256"
        }
      ],
      "name": "addLiquidity",
      "outputs": [
        {
          "internalType": "uint256",
          "name": "amountA",
          "type": "uint256"
        },
        {
          "internalType": "uint256",
          "name": "amountB",
          "type": "uint256"
        },
        {
          "internalType": "uint256",
          "name": "liquidity",
          "type": "uint256"
        }
      ],
      "stateMutability": "nonpayable",
      "type": "function"
    },
    {
      "inputs": [
        {
          "internalType": "address",
          "name": "token",
          "type": "address"
        },
        {
          "internalType": "uint256",
          "name": "amountTokenDesired",
          "type": "uint256"
        },
        {
          "internalType": "uint256",
          "name": "amountTokenMin",
          "type": "uint256"
        },
        {
          "internalType": "uint256",
          "name": "amountETHMin",
          "type": "uint256"
        },
        {
          "internalType": "address",
          "name": "to",
          "type": "address"
        },
        {
          "internalType": "uint256",
          "name": "deadline",
          "type": "uint256"
        }
      ],
      "name": "addLiquidityETH",
      "outputs": [
        {
          "internalType": "uint256",
          "name": "amountToken",
          "type": "uint256"
        },
        {
          "internalType": "uint256",
          "name": "amountETH",
          "type": "uint256"
        },
        {
          "internalType": "uint256",
          "name": "liquidity",
          "type": "uint256"
        }
      ],
      "stateMutability": "payable",
      "type": "function"
    },
    {
      "inputs": [],
      "name": "claim",
      "outputs": [],
      "stateMutability": "nonpayable",
      "type": "function"
    },
    {
      "inputs": [],
      "name": "factory",
      "outputs": [
        {
          "internalType": "address",
          "name": "",
          "type": "address"
        }
      ],
      "stateMutability": "view",
      "type": "function"
    },
    {
      "inputs": [],
      "name": "feeDenominator",
      "outputs": [
        {
          "internalType": "uint16",
          "name": "",
          "type": "uint16"
        }
      ],
      "stateMutability": "view",
      "type": "function"
    },
    {
      "inputs": [],
      "name": "feeSetter",
      "outputs": [
        {
          "internalType": "address",
          "name": "",
          "type": "address"
        }
      ],
      "stateMutability": "view",
      "type": "function"
    },
    {
      "inputs": [],
      "name": "fees",
      "outputs": [
        {
          "internalType": "uint16",
          "name": "",
          "type": "uint16"
        }
      ],
      "stateMutability": "view",
      "type": "function"
    },
    {
      "inputs": [
        {
          "internalType": "uint256",
          "name": "amountOut",
          "type": "uint256"
        },
        {
          "internalType": "uint256",
          "name": "reserveIn",
          "type": "uint256"
        },
        {
          "internalType": "uint256",
          "name": "reserveOut",
          "type": "uint256"
        },
        {
          "internalType": "uint16",
          "name": "fees_",
          "type": "uint16"
        }
      ],
      "name": "getAmountIn",
      "outputs": [
        {
          "internalType": "uint256",
          "name": "amountIn",
          "type": "uint256"
        }
      ],
      "stateMutability": "pure",
      "type": "function"
    },
    {
      "inputs": [
        {
          "internalType": "uint256",
          "name": "amountIn",
          "type": "uint256"
        },
        {
          "internalType": "uint256",
          "name": "reserveIn",
          "type": "uint256"
        },
        {
          "internalType": "uint256",
          "name": "reserveOut",
          "type": "uint256"
        },
        {
          "internalType": "uint16",
          "name": "fees_",
          "type": "uint16"
        }
      ],
      "name": "getAmountOut",
      "outputs": [
        {
          "internalType": "uint256",
          "name": "amountOut",
          "type": "uint256"
        }
      ],
      "stateMutability": "pure",
      "type": "function"
    },
    {
      "inputs": [
        {
          "internalType": "uint256",
          "name": "amountOut",
          "type": "uint256"
        },
        {
          "internalType": "address[]",
          "name": "path",
          "type": "address[]"
        },
        {
          "internalType": "uint16",
          "name": "fees_",
          "type": "uint16"
        }
      ],
      "name": "getAmountsIn",
      "outputs": [
        {
          "internalType": "uint256[]",
          "name": "amounts",
          "type": "uint256[]"
        }
      ],
      "stateMutability": "view",
      "type": "function"
    },
    {
      "inputs": [
        {
          "internalType": "uint256",
          "name": "amountIn",
          "type": "uint256"
        },
        {
          "internalType": "address[]",
          "name": "path",
          "type": "address[]"
        },
        {
          "internalType": "uint16",
          "name": "fees_",
          "type": "uint16"
        }
      ],
      "name": "getAmountsOut",
      "outputs": [
        {
          "internalType": "uint256[]",
          "name": "amounts",
          "type": "uint256[]"
        }
      ],
      "stateMutability": "view",
      "type": "function"
    },
    {
      "inputs": [
        {
          "internalType": "address",
          "name": "user",
          "type": "address"
        }
      ],
      "name": "getClaims",
      "outputs": [
        {
          "internalType": "uint256",
          "name": "",
          "type": "uint256"
        }
      ],
      "stateMutability": "view",
      "type": "function"
    },
    {
      "inputs": [
        {
          "internalType": "uint256",
          "name": "amountA",
          "type": "uint256"
        },
        {
          "internalType": "uint256",
          "name": "reserveA",
          "type": "uint256"
        },
        {
          "internalType": "uint256",
          "name": "reserveB",
          "type": "uint256"
        }
      ],
      "name": "quote",
      "outputs": [
        {
          "internalType": "uint256",
          "name": "amountB",
          "type": "uint256"
        }
      ],
      "stateMutability": "pure",
      "type": "function"
    },
    {
      "inputs": [
        {
          "internalType": "address",
          "name": "tokenA",
          "type": "address"
        },
        {
          "internalType": "address",
          "name": "tokenB",
          "type": "address"
        },
        {
          "internalType": "uint256",
          "name": "liquidity",
          "type": "uint256"
        },
        {
          "internalType": "uint256",
          "name": "amountAMin",
          "type": "uint256"
        },
        {
          "internalType": "uint256",
          "name": "amountBMin",
          "type": "uint256"
        },
        {
          "internalType": "address",
          "name": "to",
          "type": "address"
        },
        {
          "internalType": "uint256",
          "name": "deadline",
          "type": "uint256"
        }
      ],
      "name": "removeLiquidity",
      "outputs": [
        {
          "internalType": "uint256",
          "name": "amountA",
          "type": "uint256"
        },
        {
          "internalType": "uint256",
          "name": "amountB",
          "type": "uint256"
        }
      ],
      "stateMutability": "nonpayable",
      "type": "function"
    },
    {
      "inputs": [
        {
          "internalType": "address",
          "name": "token",
          "type": "address"
        },
        {
          "internalType": "uint256",
          "name": "liquidity",
          "type": "uint256"
        },
        {
          "internalType": "uint256",
          "name": "amountTokenMin",
          "type": "uint256"
        },
        {
          "internalType": "uint256",
          "name": "amountETHMin",
          "type": "uint256"
        },
        {
          "internalType": "address",
          "name": "to",
          "type": "address"
        },
        {
          "internalType": "uint256",
          "name": "deadline",
          "type": "uint256"
        }
      ],
      "name": "removeLiquidityETH",
      "outputs": [
        {
          "internalType": "uint256",
          "name": "amountToken",
          "type": "uint256"
        },
        {
          "internalType": "uint256",
          "name": "amountETH",
          "type": "uint256"
        }
      ],
      "stateMutability": "nonpayable",
      "type": "function"
    },
    {
      "inputs": [
        {
          "internalType": "address",
          "name": "token",
          "type": "address"
        },
        {
          "internalType": "uint256",
          "name": "liquidity",
          "type": "uint256"
        },
        {
          "internalType": "uint256",
          "name": "amountTokenMin",
          "type": "uint256"
        },
        {
          "internalType": "uint256",
          "name": "amountETHMin",
          "type": "uint256"
        },
        {
          "internalType": "address",
          "name": "to",
          "type": "address"
        },
        {
          "internalType": "uint256",
          "name": "deadline",
          "type": "uint256"
        }
      ],
      "name": "removeLiquidityETHSupportingFeeOnTransferTokens",
      "outputs": [
        {
          "internalType": "uint256",
          "name": "amountETH",
          "type": "uint256"
        }
      ],
      "stateMutability": "nonpayable",
      "type": "function"
    },
    {
      "inputs": [
        {
          "internalType": "address",
          "name": "token",
          "type": "address"
        },
        {
          "internalType": "uint256",
          "name": "liquidity",
          "type": "uint256"
        },
        {
          "internalType": "uint256",
          "name": "amountTokenMin",
          "type": "uint256"
        },
        {
          "internalType": "uint256",
          "name": "amountETHMin",
          "type": "uint256"
        },
        {
          "internalType": "address",
          "name": "to",
          "type": "address"
        },
        {
          "internalType": "uint256",
          "name": "deadline",
          "type": "uint256"
        },
        {
          "internalType": "bool",
          "name": "approveMax",
          "type": "bool"
        },
        {
          "internalType": "uint8",
          "name": "v",
          "type": "uint8"
        },
        {
          "internalType": "bytes32",
          "name": "r",
          "type": "bytes32"
        },
        {
          "internalType": "bytes32",
          "name": "s",
          "type": "bytes32"
        }
      ],
      "name": "removeLiquidityETHWithPermit",
      "outputs": [
        {
          "internalType": "uint256",
          "name": "amountToken",
          "type": "uint256"
        },
        {
          "internalType": "uint256",
          "name": "amountETH",
          "type": "uint256"
        }
      ],
      "stateMutability": "nonpayable",
      "type": "function"
    },
    {
      "inputs": [
        {
          "internalType": "address",
          "name": "token",
          "type": "address"
        },
        {
          "internalType": "uint256",
          "name": "liquidity",
          "type": "uint256"
        },
        {
          "internalType": "uint256",
          "name": "amountTokenMin",
          "type": "uint256"
        },
        {
          "internalType": "uint256",
          "name": "amountETHMin",
          "type": "uint256"
        },
        {
          "internalType": "address",
          "name": "to",
          "type": "address"
        },
        {
          "internalType": "uint256",
          "name": "deadline",
          "type": "uint256"
        },
        {
          "internalType": "bool",
          "name": "approveMax",
          "type": "bool"
        },
        {
          "internalType": "uint8",
          "name": "v",
          "type": "uint8"
        },
        {
          "internalType": "bytes32",
          "name": "r",
          "type": "bytes32"
        },
        {
          "internalType": "bytes32",
          "name": "s",
          "type": "bytes32"
        }
      ],
      "name": "removeLiquidityETHWithPermitSupportingFeeOnTransferTokens",
      "outputs": [
        {
          "internalType": "uint256",
          "name": "amountETH",
          "type": "uint256"
        }
      ],
      "stateMutability": "nonpayable",
      "type": "function"
    },
    {
      "inputs": [
        {
          "internalType": "address",
          "name": "tokenA",
          "type": "address"
        },
        {
          "internalType": "address",
          "name": "tokenB",
          "type": "address"
        },
        {
          "internalType": "uint256",
          "name": "liquidity",
          "type": "uint256"
        },
        {
          "internalType": "uint256",
          "name": "amountAMin",
          "type": "uint256"
        },
        {
          "internalType": "uint256",
          "name": "amountBMin",
          "type": "uint256"
        },
        {
          "internalType": "address",
          "name": "to",
          "type": "address"
        },
        {
          "internalType": "uint256",
          "name": "deadline",
          "type": "uint256"
        },
        {
          "internalType": "bool",
          "name": "approveMax",
          "type": "bool"
        },
        {
          "internalType": "uint8",
          "name": "v",
          "type": "uint8"
        },
        {
          "internalType": "bytes32",
          "name": "r",
          "type": "bytes32"
        },
        {
          "internalType": "bytes32",
          "name": "s",
          "type": "bytes32"
        }
      ],
      "name": "removeLiquidityWithPermit",
      "outputs": [
        {
          "internalType": "uint256",
          "name": "amountA",
          "type": "uint256"
        },
        {
          "internalType": "uint256",
          "name": "amountB",
          "type": "uint256"
        }
      ],
      "stateMutability": "nonpayable",
      "type": "function"
    },
    {
      "inputs": [
        {
          "internalType": "address",
          "name": "_feeSetter",
          "type": "address"
        }
      ],
      "name": "setFeeSetter",
      "outputs": [],
      "stateMutability": "nonpayable",
      "type": "function"
    },
    {
      "inputs": [
        {
          "internalType": "uint16",
          "name": "_fees",
          "type": "uint16"
        }
      ],
      "name": "setFees",
      "outputs": [],
      "stateMutability": "nonpayable",
      "type": "function"
    },
    {
      "inputs": [
        {
          "internalType": "uint256",
          "name": "amountOut",
          "type": "uint256"
        },
        {
          "internalType": "address[]",
          "name": "path",
          "type": "address[]"
        },
        {
          "internalType": "address",
          "name": "to",
          "type": "address"
        },
        {
          "internalType": "uint256",
          "name": "deadline",
          "type": "uint256"
        },
        {
          "internalType": "address",
          "name": "referral",
          "type": "address"
        }
      ],
      "name": "swapETHForExactTokens",
      "outputs": [
        {
          "internalType": "uint256[]",
          "name": "amounts",
          "type": "uint256[]"
        }
      ],
      "stateMutability": "payable",
      "type": "function"
    },
    {
      "inputs": [
        {
          "internalType": "uint256",
          "name": "amountOutMin",
          "type": "uint256"
        },
        {
          "internalType": "address[]",
          "name": "path",
          "type": "address[]"
        },
        {
          "internalType": "address",
          "name": "to",
          "type": "address"
        },
        {
          "internalType": "uint256",
          "name": "deadline",
          "type": "uint256"
        },
        {
          "internalType": "address",
          "name": "referral",
          "type": "address"
        }
      ],
      "name": "swapExactETHForTokens",
      "outputs": [
        {
          "internalType": "uint256[]",
          "name": "amounts",
          "type": "uint256[]"
        }
      ],
      "stateMutability": "payable",
      "type": "function"
    },
    {
      "inputs": [
        {
          "internalType": "uint256",
          "name": "amountOutMin",
          "type": "uint256"
        },
        {
          "internalType": "address[]",
          "name": "path",
          "type": "address[]"
        },
        {
          "internalType": "address",
          "name": "to",
          "type": "address"
        },
        {
          "internalType": "uint256",
          "name": "deadline",
          "type": "uint256"
        },
        {
          "internalType": "address",
          "name": "referral",
          "type": "address"
        }
      ],
      "name": "swapExactETHForTokensSupportingFeeOnTransferTokens",
      "outputs": [],
      "stateMutability": "payable",
      "type": "function"
    },
    {
      "inputs": [
        {
          "internalType": "uint256",
          "name": "amountIn",
          "type": "uint256"
        },
        {
          "internalType": "uint256",
          "name": "amountOutMin",
          "type": "uint256"
        },
        {
          "internalType": "address[]",
          "name": "path",
          "type": "address[]"
        },
        {
          "internalType": "address",
          "name": "to",
          "type": "address"
        },
        {
          "internalType": "uint256",
          "name": "deadline",
          "type": "uint256"
        },
        {
          "internalType": "address",
          "name": "referral",
          "type": "address"
        }
      ],
      "name": "swapExactTokensForETH",
      "outputs": [
        {
          "internalType": "uint256[]",
          "name": "amounts",
          "type": "uint256[]"
        }
      ],
      "stateMutability": "nonpayable",
      "type": "function"
    },
    {
      "inputs": [
        {
          "internalType": "uint256",
          "name": "amountIn",
          "type": "uint256"
        },
        {
          "internalType": "uint256",
          "name": "amountOutMin",
          "type": "uint256"
        },
        {
          "internalType": "address[]",
          "name": "path",
          "type": "address[]"
        },
        {
          "internalType": "address",
          "name": "to",
          "type": "address"
        },
        {
          "internalType": "uint256",
          "name": "deadline",
          "type": "uint256"
        },
        {
          "internalType": "address",
          "name": "referral",
          "type": "address"
        }
      ],
      "name": "swapExactTokensForETHSupportingFeeOnTransferTokens",
      "outputs": [],
      "stateMutability": "nonpayable",
      "type": "function"
    },
    {
      "inputs": [
        {
          "internalType": "uint256",
          "name": "amountIn",
          "type": "uint256"
        },
        {
          "internalType": "uint256",
          "name": "amountOutMin",
          "type": "uint256"
        },
        {
          "internalType": "address[]",
          "name": "path",
          "type": "address[]"
        },
        {
          "internalType": "address",
          "name": "to",
          "type": "address"
        },
        {
          "internalType": "uint256",
          "name": "deadline",
          "type": "uint256"
        }
      ],
      "name": "swapExactTokensForTokens",
      "outputs": [
        {
          "internalType": "uint256[]",
          "name": "amounts",
          "type": "uint256[]"
        }
      ],
      "stateMutability": "nonpayable",
      "type": "function"
    },
    {
      "inputs": [
        {
          "internalType": "uint256",
          "name": "amountIn",
          "type": "uint256"
        },
        {
          "internalType": "uint256",
          "name": "amountOutMin",
          "type": "uint256"
        },
        {
          "internalType": "address[]",
          "name": "path",
          "type": "address[]"
        },
        {
          "internalType": "address",
          "name": "to",
          "type": "address"
        },
        {
          "internalType": "uint256",
          "name": "deadline",
          "type": "uint256"
        }
      ],
      "name": "swapExactTokensForTokensSupportingFeeOnTransferTokens",
      "outputs": [],
      "stateMutability": "nonpayable",
      "type": "function"
    },
    {
      "inputs": [
        {
          "internalType": "uint256",
          "name": "amountOut",
          "type": "uint256"
        },
        {
          "internalType": "uint256",
          "name": "amountInMax",
          "type": "uint256"
        },
        {
          "internalType": "address[]",
          "name": "path",
          "type": "address[]"
        },
        {
          "internalType": "address",
          "name": "to",
          "type": "address"
        },
        {
          "internalType": "uint256",
          "name": "deadline",
          "type": "uint256"
        },
        {
          "internalType": "address",
          "name": "referral",
          "type": "address"
        }
      ],
      "name": "swapTokensForExactETH",
      "outputs": [
        {
          "internalType": "uint256[]",
          "name": "amounts",
          "type": "uint256[]"
        }
      ],
      "stateMutability": "nonpayable",
      "type": "function"
    },
    {
      "inputs": [
        {
          "internalType": "uint256",
          "name": "amountOut",
          "type": "uint256"
        },
        {
          "internalType": "uint256",
          "name": "amountInMax",
          "type": "uint256"
        },
        {
          "internalType": "address[]",
          "name": "path",
          "type": "address[]"
        },
        {
          "internalType": "address",
          "name": "to",
          "type": "address"
        },
        {
          "internalType": "uint256",
          "name": "deadline",
          "type": "uint256"
        }
      ],
      "name": "swapTokensForExactTokens",
      "outputs": [
        {
          "internalType": "uint256[]",
          "name": "amounts",
          "type": "uint256[]"
        }
      ],
      "stateMutability": "nonpayable",
      "type": "function"
    },
    {
      "stateMutability": "payable",
      "type": "receive"
    }
  ],
  "bytecode": "0x60c06040526001805461ffff60a01b19166126f760a01b1761ffff60b01b191661027160b41b1790553480156200003557600080fd5b5060405162005ffe38038062005ffe833981810160405260408110156200005b57600080fd5b5080516020909101516001600160601b0319606092831b8116608052911b1660a052600180546001600160a01b0319163317905560805160601c60a05160601c615e37620001c7600039806101f9528061101f528061105a528061116b528061125d52806112de52806118bc5280611b375280611c875280611e3b5280611ebc5280612096528061225b52806122f0528061270652806128e352806129b35280612b17528061323e528061342052806134c7528061359c5280613bfa5280613f305280613f865280613fba528061403b52508061131d52806116ff52806119ae5280611ab05280611d6d5280611efb528061218a528061232f52806124c152806125df52806128265280612af55280612ce25280612fdd528061309f528061318e528061333052806137765280613a085280613bd85280613db55280613f6452806147a9528061498b5280614f725280614fa8528061565d528061573e52806157be5250615e376000f3fe6080604052600436106101dc5760003560e01c80638803dbee11610102578063baa2abde11610095578063ded9382a11610064578063ded9382a14610e06578063e8e3370014610e86578063f305d71914610f13578063f6eab62114610f6657610222565b8063baa2abde14610d19578063c45a015514610d83578063ca1123c214610d98578063d0d46a0b14610dc657610222565b8063ad5c4648116100d1578063ad5c464814610c2e578063ad615dec14610c43578063af2979eb14610c79578063b19805af14610cd957610222565b80638803dbee14610a0857806395009df614610aad578063962efddb14610b6a5780639af1d35a14610c1957610222565b806338ed17391161017a5780635c11d795116101495780635c11d7951461082857806361d7b100146108cd5780637c20d1591461090d57806387cf3ef4146109ca57610222565b806338ed17391461062d5780633d0e3ec5146106d25780634e71d92d146107815780635b0d59841461079657610222565b80632195995c116101b65780632195995c146103695780632232ea43146103f45780632f100e4a146104f3578063344933be1461059057610222565b806302751cec14610227578063088890dc146102a0578063180b0d7e1461033d57610222565b36610222573373ffffffffffffffffffffffffffffffffffffffff7f0000000000000000000000000000000000000000000000000000000000000000161461022057fe5b005b600080fd5b34801561023357600080fd5b50610287600480360360c081101561024a57600080fd5b5073ffffffffffffffffffffffffffffffffffffffff81358116916020810135916040820135916060810135916080820135169060a00135610fa6565b6040805192835260208301919091528051918290030190f35b610220600480360360a08110156102b657600080fd5b813591908101906040810160208201356401000000008111156102d857600080fd5b8201836020820111156102ea57600080fd5b8035906020019184602083028401116401000000008311171561030c57600080fd5b919350915073ffffffffffffffffffffffffffffffffffffffff8135811691602081013591604090910135166110f9565b34801561034957600080fd5b506103526116d1565b6040805161ffff9092168252519081900360200190f35b34801561037557600080fd5b50610287600480360361016081101561038d57600080fd5b5073ffffffffffffffffffffffffffffffffffffffff8135811691602081013582169160408201359160608101359160808201359160a08101359091169060c08101359060e081013515159060ff61010082013516906101208101359061014001356116f5565b34801561040057600080fd5b506104a3600480360360c081101561041757600080fd5b81359160208101359181019060608101604082013564010000000081111561043e57600080fd5b82018360208201111561045057600080fd5b8035906020019184602083028401116401000000008311171561047257600080fd5b919350915073ffffffffffffffffffffffffffffffffffffffff813581169160208101359160409091013516611833565b60408051602080825283518183015283519192839290830191858101910280838360005b838110156104df5781810151838201526020016104c7565b505050509050019250505060405180910390f35b6104a3600480360360a081101561050957600080fd5b8135919081019060408101602082013564010000000081111561052b57600080fd5b82018360208201111561053d57600080fd5b8035906020019184602083028401116401000000008311171561055f57600080fd5b919350915073ffffffffffffffffffffffffffffffffffffffff813581169160208101359160409091013516611c13565b6104a3600480360360a08110156105a657600080fd5b813591908101906040810160208201356401000000008111156105c857600080fd5b8201836020820111156105da57600080fd5b803590602001918460208302840111640100000000831117156105fc57600080fd5b919350915073ffffffffffffffffffffffffffffffffffffffff813581169160208101359160409091013516612022565b34801561063957600080fd5b506104a3600480360360a081101561065057600080fd5b81359160208101359181019060608101604082013564010000000081111561067757600080fd5b82018360208201111561068957600080fd5b803590602001918460208302840111640100000000831117156106ab57600080fd5b919350915073ffffffffffffffffffffffffffffffffffffffff813516906020013561244a565b3480156106de57600080fd5b50610220600480360360c08110156106f557600080fd5b81359160208101359181019060608101604082013564010000000081111561071c57600080fd5b82018360208201111561072e57600080fd5b8035906020019184602083028401116401000000008311171561075057600080fd5b919350915073ffffffffffffffffffffffffffffffffffffffff81358116916020810135916040909101351661267f565b34801561078d57600080fd5b50610220612a54565b3480156107a257600080fd5b5061081660048036036101408110156107ba57600080fd5b5073ffffffffffffffffffffffffffffffffffffffff81358116916020810135916040820135916060810135916080820135169060a08101359060c081013515159060ff60e08201351690610100810135906101200135612aed565b60408051918252519081900360200190f35b34801561083457600080fd5b50610220600480360360a081101561084b57600080fd5b81359160208101359181019060608101604082013564010000000081111561087257600080fd5b82018360208201111561088457600080fd5b803590602001918460208302840111640100000000831117156108a657600080fd5b919350915073ffffffffffffffffffffffffffffffffffffffff8135169060200135612c3f565b3480156108d957600080fd5b50610816600480360360808110156108f057600080fd5b508035906020810135906040810135906060013561ffff16612fbf565b34801561091957600080fd5b506104a36004803603606081101561093057600080fd5b8135919081019060408101602082013564010000000081111561095257600080fd5b82018360208201111561096457600080fd5b8035906020019184602083028401116401000000008311171561098657600080fd5b9190808060200260200160405190810160405280939291908181526020018383602002808284376000920191909152509295505050903561ffff169150612fd69050565b3480156109d657600080fd5b506109df61300c565b6040805173ffffffffffffffffffffffffffffffffffffffff9092168252519081900360200190f35b348015610a1457600080fd5b506104a3600480360360a0811015610a2b57600080fd5b813591602081013591810190606081016040820135640100000000811115610a5257600080fd5b820183602082011115610a6457600080fd5b80359060200191846020830284011164010000000083111715610a8657600080fd5b919350915073ffffffffffffffffffffffffffffffffffffffff8135169060200135613028565b348015610ab957600080fd5b506104a360048036036060811015610ad057600080fd5b81359190810190604081016020820135640100000000811115610af257600080fd5b820183602082011115610b0457600080fd5b80359060200191846020830284011164010000000083111715610b2657600080fd5b9190808060200260200160405190810160405280939291908181526020018383602002808284376000920191909152509295505050903561ffff1691506131879050565b348015610b7657600080fd5b506104a3600480360360c0811015610b8d57600080fd5b813591602081013591810190606081016040820135640100000000811115610bb457600080fd5b820183602082011115610bc657600080fd5b80359060200191846020830284011164010000000083111715610be857600080fd5b919350915073ffffffffffffffffffffffffffffffffffffffff8135811691602081013591604090910135166131b5565b348015610c2557600080fd5b506103526133fc565b348015610c3a57600080fd5b506109df61341e565b348015610c4f57600080fd5b5061081660048036036060811015610c6657600080fd5b5080359060208101359060400135613442565b348015610c8557600080fd5b50610816600480360360c0811015610c9c57600080fd5b5073ffffffffffffffffffffffffffffffffffffffff81358116916020810135916040820135916060810135916080820135169060a0013561344f565b348015610ce557600080fd5b5061022060048036036020811015610cfc57600080fd5b503573ffffffffffffffffffffffffffffffffffffffff1661362f565b348015610d2557600080fd5b50610287600480360360e0811015610d3c57600080fd5b5073ffffffffffffffffffffffffffffffffffffffff8135811691602081013582169160408201359160608101359160808201359160a08101359091169060c001356136fc565b348015610d8f57600080fd5b506109df613a06565b348015610da457600080fd5b5061022060048036036020811015610dbb57600080fd5b503561ffff16613a2a565b348015610dd257600080fd5b5061081660048036036020811015610de957600080fd5b503573ffffffffffffffffffffffffffffffffffffffff16613ba6565b348015610e1257600080fd5b506102876004803603610140811015610e2a57600080fd5b5073ffffffffffffffffffffffffffffffffffffffff81358116916020810135916040820135916060810135916080820135169060a08101359060c081013515159060ff60e08201351690610100810135906101200135613bce565b348015610e9257600080fd5b50610ef56004803603610100811015610eaa57600080fd5b5073ffffffffffffffffffffffffffffffffffffffff8135811691602081013582169160408201359160608101359160808201359160a08101359160c0820135169060e00135613d26565b60408051938452602084019290925282820152519081900360600190f35b610ef5600480360360c0811015610f2957600080fd5b5073ffffffffffffffffffffffffffffffffffffffff81358116916020810135916040820135916060810135916080820135169060a00135613eb5565b348015610f7257600080fd5b5061081660048036036080811015610f8957600080fd5b508035906020810135906040810135906060013561ffff166141e1565b600080824281101561101957604080517f08c379a000000000000000000000000000000000000000000000000000000000815260206004820152601660248201527f50616e63616b65526f757465723a204558504952454400000000000000000000604482015290519081900360640190fd5b611048897f00000000000000000000000000000000000000000000000000000000000000008a8a8a308a6136fc565b90935091506110588986856141ef565b7f000000000000000000000000000000000000000000000000000000000000000073ffffffffffffffffffffffffffffffffffffffff16632e1a7d4d836040518263ffffffff1660e01b815260040180828152602001915050600060405180830381600087803b1580156110cb57600080fd5b505af11580156110df573d6000803e3d6000fd5b505050506110ed85836143b6565b50965096945050505050565b814281101561116957604080517f08c379a000000000000000000000000000000000000000000000000000000000815260206004820152601660248201527f50616e63616b65526f757465723a204558504952454400000000000000000000604482015290519081900360640190fd5b7f000000000000000000000000000000000000000000000000000000000000000073ffffffffffffffffffffffffffffffffffffffff16868660008181106111ad57fe5b9050602002013573ffffffffffffffffffffffffffffffffffffffff1673ffffffffffffffffffffffffffffffffffffffff161461124c57604080517f08c379a000000000000000000000000000000000000000000000000000000000815260206004820152601b60248201527f50616e63616b65526f757465723a20494e56414c49445f504154480000000000604482015290519081900360640190fd5b34600061125982856144f3565b90507f000000000000000000000000000000000000000000000000000000000000000073ffffffffffffffffffffffffffffffffffffffff1663d0e30db0826040518263ffffffff1660e01b81526004016000604051808303818588803b1580156112c357600080fd5b505af11580156112d7573d6000803e3d6000fd5b50505050507f000000000000000000000000000000000000000000000000000000000000000073ffffffffffffffffffffffffffffffffffffffff1663a9059cbb6113957f00000000000000000000000000000000000000000000000000000000000000008b8b600081811061134957fe5b9050602002013573ffffffffffffffffffffffffffffffffffffffff168c8c600181811061137357fe5b9050602002013573ffffffffffffffffffffffffffffffffffffffff16614667565b836040518363ffffffff1660e01b8152600401808373ffffffffffffffffffffffffffffffffffffffff1673ffffffffffffffffffffffffffffffffffffffff16815260200182815260200192505050602060405180830381600087803b1580156113ff57600080fd5b505af1158015611413573d6000803e3d6000fd5b505050506040513d602081101561142957600080fd5b505161143157fe5b600088887fffffffffffffffffffffffffffffffffffffffffffffffffffffffffffffffff810181811061146157fe5b9050602002013573ffffffffffffffffffffffffffffffffffffffff1673ffffffffffffffffffffffffffffffffffffffff166370a08231886040518263ffffffff1660e01b8152600401808273ffffffffffffffffffffffffffffffffffffffff1673ffffffffffffffffffffffffffffffffffffffff16815260200191505060206040518083038186803b1580156114fa57600080fd5b505afa15801561150e573d6000803e3d6000fd5b505050506040513d602081101561152457600080fd5b50516040805160208b810282810182019093528b825292935061156a9290918c918c9182918501908490808284376000920191909152508b925061271091506147529050565b8961166e828b8b7fffffffffffffffffffffffffffffffffffffffffffffffffffffffffffffffff810181811061159d57fe5b9050602002013573ffffffffffffffffffffffffffffffffffffffff1673ffffffffffffffffffffffffffffffffffffffff166370a082318b6040518263ffffffff1660e01b8152600401808273ffffffffffffffffffffffffffffffffffffffff1673ffffffffffffffffffffffffffffffffffffffff16815260200191505060206040518083038186803b15801561163657600080fd5b505afa15801561164a573d6000803e3d6000fd5b505050506040513d602081101561166057600080fd5b50519063ffffffff614af916565b10156116c5576040517f08c379a0000000000000000000000000000000000000000000000000000000008152600401808060200182810382526029815260200180615cd36029913960400191505060405180910390fd5b50505050505050505050565b600154760100000000000000000000000000000000000000000000900461ffff1681565b60008060006117257f00000000000000000000000000000000000000000000000000000000000000008f8f614667565b9050600087611734578c611756565b7fffffffffffffffffffffffffffffffffffffffffffffffffffffffffffffffff5b604080517fd505accf00000000000000000000000000000000000000000000000000000000815233600482015230602482015260448101839052606481018c905260ff8a16608482015260a4810189905260c48101889052905191925073ffffffffffffffffffffffffffffffffffffffff84169163d505accf9160e48082019260009290919082900301818387803b1580156117f257600080fd5b505af1158015611806573d6000803e3d6000fd5b505050506118198f8f8f8f8f8f8f6136fc565b809450819550505050509b509b9950505050505050505050565b606082428110156118a557604080517f08c379a000000000000000000000000000000000000000000000000000000000815260206004820152601660248201527f50616e63616b65526f757465723a204558504952454400000000000000000000604482015290519081900360640190fd5b73ffffffffffffffffffffffffffffffffffffffff7f00000000000000000000000000000000000000000000000000000000000000001687877fffffffffffffffffffffffffffffffffffffffffffffffffffffffffffffffff810181811061190a57fe5b9050602002013573ffffffffffffffffffffffffffffffffffffffff1673ffffffffffffffffffffffffffffffffffffffff16146119a957604080517f08c379a000000000000000000000000000000000000000000000000000000000815260206004820152601b60248201527f50616e63616b65526f757465723a20494e56414c49445f504154480000000000604482015290519081900360640190fd5b611a0b7f00000000000000000000000000000000000000000000000000000000000000008a8989808060200260200160405190810160405280939291908181526020018383602002808284376000920191909152506127109250614b71915050565b91508782600184510381518110611a1e57fe5b60200260200101511015611a7d576040517f08c379a0000000000000000000000000000000000000000000000000000000008152600401808060200182810382526029815260200180615cd36029913960400191505060405180910390fd5b611af687876000818110611a8d57fe5b9050602002013573ffffffffffffffffffffffffffffffffffffffff1633611adc7f00000000000000000000000000000000000000000000000000000000000000008b8b600081811061134957fe5b85600081518110611ae957fe5b6020026020010151614cd9565b611b3582888880806020026020016040519081016040528093929190818152602001838360200280828437600092019190915250309250614ea9915050565b7f000000000000000000000000000000000000000000000000000000000000000073ffffffffffffffffffffffffffffffffffffffff16632e1a7d4d83600185510381518110611b8157fe5b60200260200101516040518263ffffffff1660e01b815260040180828152602001915050600060405180830381600087803b158015611bbf57600080fd5b505af1158015611bd3573d6000803e3d6000fd5b505050506000611bfa83600185510381518110611bec57fe5b6020026020010151856144f3565b9050611c0686826143b6565b5050979650505050505050565b60608242811015611c8557604080517f08c379a000000000000000000000000000000000000000000000000000000000815260206004820152601660248201527f50616e63616b65526f757465723a204558504952454400000000000000000000604482015290519081900360640190fd5b7f000000000000000000000000000000000000000000000000000000000000000073ffffffffffffffffffffffffffffffffffffffff1687876000818110611cc957fe5b9050602002013573ffffffffffffffffffffffffffffffffffffffff1673ffffffffffffffffffffffffffffffffffffffff1614611d6857604080517f08c379a000000000000000000000000000000000000000000000000000000000815260206004820152601b60248201527f50616e63616b65526f757465723a20494e56414c49445f504154480000000000604482015290519081900360640190fd5b611dca7f000000000000000000000000000000000000000000000000000000000000000089898980806020026020016040519081016040528093929190818152602001838360200280828437600092019190915250612710925061511d915050565b91506000611dde83600081518110611bec57fe5b905034811115611e39576040517f08c379a0000000000000000000000000000000000000000000000000000000008152600401808060200182810382526025815260200180615d936025913960400191505060405180910390fd5b7f000000000000000000000000000000000000000000000000000000000000000073ffffffffffffffffffffffffffffffffffffffff1663d0e30db0826040518263ffffffff1660e01b81526004016000604051808303818588803b158015611ea157600080fd5b505af1158015611eb5573d6000803e3d6000fd5b50505050507f000000000000000000000000000000000000000000000000000000000000000073ffffffffffffffffffffffffffffffffffffffff1663a9059cbb611f277f00000000000000000000000000000000000000000000000000000000000000008b8b600081811061134957fe5b836040518363ffffffff1660e01b8152600401808373ffffffffffffffffffffffffffffffffffffffff1673ffffffffffffffffffffffffffffffffffffffff16815260200182815260200192505050602060405180830381600087803b158015611f9157600080fd5b505af1158015611fa5573d6000803e3d6000fd5b505050506040513d6020811015611fbb57600080fd5b5051611fc357fe5b612002838989808060200260200160405190810160405280939291908181526020018383602002808284376000920191909152508b9250614ea9915050565b8034111561201657612016338234036143b6565b50509695505050505050565b6060824281101561209457604080517f08c379a000000000000000000000000000000000000000000000000000000000815260206004820152601660248201527f50616e63616b65526f757465723a204558504952454400000000000000000000604482015290519081900360640190fd5b7f000000000000000000000000000000000000000000000000000000000000000073ffffffffffffffffffffffffffffffffffffffff16878760008181106120d857fe5b9050602002013573ffffffffffffffffffffffffffffffffffffffff1673ffffffffffffffffffffffffffffffffffffffff161461217757604080517f08c379a000000000000000000000000000000000000000000000000000000000815260206004820152601b60248201527f50616e63616b65526f757465723a20494e56414c49445f504154480000000000604482015290519081900360640190fd5b600061218334856144f3565b90506121e77f0000000000000000000000000000000000000000000000000000000000000000828a8a808060200260200160405190810160405280939291908181526020018383602002808284376000920191909152506127109250614b71915050565b925088836001855103815181106121fa57fe5b60200260200101511015612259576040517f08c379a0000000000000000000000000000000000000000000000000000000008152600401808060200182810382526029815260200180615cd36029913960400191505060405180910390fd5b7f000000000000000000000000000000000000000000000000000000000000000073ffffffffffffffffffffffffffffffffffffffff1663d0e30db0846000815181106122a257fe5b60200260200101516040518263ffffffff1660e01b81526004016000604051808303818588803b1580156122d557600080fd5b505af11580156122e9573d6000803e3d6000fd5b50505050507f000000000000000000000000000000000000000000000000000000000000000073ffffffffffffffffffffffffffffffffffffffff1663a9059cbb61235b7f00000000000000000000000000000000000000000000000000000000000000008b8b600081811061134957fe5b8560008151811061236857fe5b60200260200101516040518363ffffffff1660e01b8152600401808373ffffffffffffffffffffffffffffffffffffffff1673ffffffffffffffffffffffffffffffffffffffff16815260200182815260200192505050602060405180830381600087803b1580156123d957600080fd5b505af11580156123ed573d6000803e3d6000fd5b505050506040513d602081101561240357600080fd5b505161240b57fe5b612016838989808060200260200160405190810160405280939291908181526020018383602002808284376000920191909152508b9250614ea9915050565b606081428110156124bc57604080517f08c379a000000000000000000000000000000000000000000000000000000000815260206004820152601660248201527f50616e63616b65526f757465723a204558504952454400000000000000000000604482015290519081900360640190fd5b61253a7f0000000000000000000000000000000000000000000000000000000000000000898888808060200260200160405190810160405280939291908181526020018383602002808284376000920191909152505060015474010000000000000000000000000000000000000000900461ffff169150614b719050565b9150868260018451038151811061254d57fe5b602002602001015110156125ac576040517f08c379a0000000000000000000000000000000000000000000000000000000008152600401808060200182810382526029815260200180615cd36029913960400191505060405180910390fd5b612635868660008181106125bc57fe5b9050602002013573ffffffffffffffffffffffffffffffffffffffff1633611adc7f00000000000000000000000000000000000000000000000000000000000000008a8a600081811061260b57fe5b9050602002013573ffffffffffffffffffffffffffffffffffffffff168b8b600181811061137357fe5b61267482878780806020026020016040519081016040528093929190818152602001838360200280828437600092019190915250899250614ea9915050565b509695505050505050565b81428110156126ef57604080517f08c379a000000000000000000000000000000000000000000000000000000000815260206004820152601660248201527f50616e63616b65526f757465723a204558504952454400000000000000000000604482015290519081900360640190fd5b73ffffffffffffffffffffffffffffffffffffffff7f00000000000000000000000000000000000000000000000000000000000000001686867fffffffffffffffffffffffffffffffffffffffffffffffffffffffffffffffff810181811061275457fe5b9050602002013573ffffffffffffffffffffffffffffffffffffffff1673ffffffffffffffffffffffffffffffffffffffff16146127f357604080517f08c379a000000000000000000000000000000000000000000000000000000000815260206004820152601b60248201527f50616e63616b65526f757465723a20494e56414c49445f504154480000000000604482015290519081900360640190fd5b6128588686600081811061280357fe5b9050602002013573ffffffffffffffffffffffffffffffffffffffff16336128527f00000000000000000000000000000000000000000000000000000000000000008a8a600081811061260b57fe5b8b614cd9565b61289a86868080602002602001604051908101604052809392919081815260200183836020028082843760009201919091525030925061271091506147529050565b604080517f70a08231000000000000000000000000000000000000000000000000000000008152306004820152905160009173ffffffffffffffffffffffffffffffffffffffff7f000000000000000000000000000000000000000000000000000000000000000016916370a0823191602480820192602092909190829003018186803b15801561292a57600080fd5b505afa15801561293e573d6000803e3d6000fd5b505050506040513d602081101561295457600080fd5b50519050878110156129b1576040517f08c379a0000000000000000000000000000000000000000000000000000000008152600401808060200182810382526029815260200180615cd36029913960400191505060405180910390fd5b7f000000000000000000000000000000000000000000000000000000000000000073ffffffffffffffffffffffffffffffffffffffff16632e1a7d4d826040518263ffffffff1660e01b815260040180828152602001915050600060405180830381600087803b158015612a2457600080fd5b505af1158015612a38573d6000803e3d6000fd5b505050506000612a4882856144f3565b90506116c586826143b6565b3360009081526020819052604090205480612ad057604080517f08c379a000000000000000000000000000000000000000000000000000000000815260206004820152601060248201527f4e6f7468696e6720746f20636c61696d00000000000000000000000000000000604482015290519081900360640190fd5b33600081815260208190526040812055612aea90826143b6565b50565b600080612b3b7f00000000000000000000000000000000000000000000000000000000000000008d7f0000000000000000000000000000000000000000000000000000000000000000614667565b9050600086612b4a578b612b6c565b7fffffffffffffffffffffffffffffffffffffffffffffffffffffffffffffffff5b604080517fd505accf00000000000000000000000000000000000000000000000000000000815233600482015230602482015260448101839052606481018b905260ff8916608482015260a4810188905260c48101879052905191925073ffffffffffffffffffffffffffffffffffffffff84169163d505accf9160e48082019260009290919082900301818387803b158015612c0857600080fd5b505af1158015612c1c573d6000803e3d6000fd5b50505050612c2e8d8d8d8d8d8d61344f565b9d9c50505050505050505050505050565b8042811015612caf57604080517f08c379a000000000000000000000000000000000000000000000000000000000815260206004820152601660248201527f50616e63616b65526f757465723a204558504952454400000000000000000000604482015290519081900360640190fd5b612d3e85856000818110612cbf57fe5b9050602002013573ffffffffffffffffffffffffffffffffffffffff1633612d387f000000000000000000000000000000000000000000000000000000000000000089896000818110612d0e57fe5b9050602002013573ffffffffffffffffffffffffffffffffffffffff168a8a600181811061137357fe5b8a614cd9565b600085857fffffffffffffffffffffffffffffffffffffffffffffffffffffffffffffffff8101818110612d6e57fe5b9050602002013573ffffffffffffffffffffffffffffffffffffffff1673ffffffffffffffffffffffffffffffffffffffff166370a08231856040518263ffffffff1660e01b8152600401808273ffffffffffffffffffffffffffffffffffffffff1673ffffffffffffffffffffffffffffffffffffffff16815260200191505060206040518083038186803b158015612e0757600080fd5b505afa158015612e1b573d6000803e3d6000fd5b505050506040513d6020811015612e3157600080fd5b50516040805160208881028281018201909352888252929350612e929290918991899182918501908490808284376000920191909152505060015488925074010000000000000000000000000000000000000000900461ffff169050614752565b86612f5e8288887fffffffffffffffffffffffffffffffffffffffffffffffffffffffffffffffff8101818110612ec557fe5b9050602002013573ffffffffffffffffffffffffffffffffffffffff1673ffffffffffffffffffffffffffffffffffffffff166370a08231886040518263ffffffff1660e01b8152600401808273ffffffffffffffffffffffffffffffffffffffff1673ffffffffffffffffffffffffffffffffffffffff16815260200191505060206040518083038186803b15801561163657600080fd5b1015612fb5576040517f08c379a0000000000000000000000000000000000000000000000000000000008152600401808060200182810382526029815260200180615cd36029913960400191505060405180910390fd5b5050505050505050565b6000612fcd858585856152ac565b95945050505050565b60606130047f000000000000000000000000000000000000000000000000000000000000000085858561511d565b949350505050565b60015473ffffffffffffffffffffffffffffffffffffffff1681565b6060814281101561309a57604080517f08c379a000000000000000000000000000000000000000000000000000000000815260206004820152601660248201527f50616e63616b65526f757465723a204558504952454400000000000000000000604482015290519081900360640190fd5b6131187f0000000000000000000000000000000000000000000000000000000000000000898888808060200260200160405190810160405280939291908181526020018383602002808284376000920191909152505060015474010000000000000000000000000000000000000000900461ffff16915061511d9050565b9150868260008151811061312857fe5b602002602001015111156125ac576040517f08c379a0000000000000000000000000000000000000000000000000000000008152600401808060200182810382526025815260200180615d936025913960400191505060405180910390fd5b60606130047f0000000000000000000000000000000000000000000000000000000000000000858585614b71565b6060824281101561322757604080517f08c379a000000000000000000000000000000000000000000000000000000000815260206004820152601660248201527f50616e63616b65526f757465723a204558504952454400000000000000000000604482015290519081900360640190fd5b73ffffffffffffffffffffffffffffffffffffffff7f00000000000000000000000000000000000000000000000000000000000000001687877fffffffffffffffffffffffffffffffffffffffffffffffffffffffffffffffff810181811061328c57fe5b9050602002013573ffffffffffffffffffffffffffffffffffffffff1673ffffffffffffffffffffffffffffffffffffffff161461332b57604080517f08c379a000000000000000000000000000000000000000000000000000000000815260206004820152601b60248201527f50616e63616b65526f757465723a20494e56414c49445f504154480000000000604482015290519081900360640190fd5b61338d7f00000000000000000000000000000000000000000000000000000000000000008a898980806020026020016040519081016040528093929190818152602001838360200280828437600092019190915250612710925061511d915050565b9150878260008151811061339d57fe5b60200260200101511115611a7d576040517f08c379a0000000000000000000000000000000000000000000000000000000008152600401808060200182810382526025815260200180615d936025913960400191505060405180910390fd5b60015474010000000000000000000000000000000000000000900461ffff1681565b7f000000000000000000000000000000000000000000000000000000000000000081565b60006130048484846153d3565b600081428110156134c157604080517f08c379a000000000000000000000000000000000000000000000000000000000815260206004820152601660248201527f50616e63616b65526f757465723a204558504952454400000000000000000000604482015290519081900360640190fd5b6134f0887f000000000000000000000000000000000000000000000000000000000000000089898930896136fc565b604080517f70a08231000000000000000000000000000000000000000000000000000000008152306004820152905191945061359a92508a91879173ffffffffffffffffffffffffffffffffffffffff8416916370a0823191602480820192602092909190829003018186803b15801561356957600080fd5b505afa15801561357d573d6000803e3d6000fd5b505050506040513d602081101561359357600080fd5b50516141ef565b7f000000000000000000000000000000000000000000000000000000000000000073ffffffffffffffffffffffffffffffffffffffff16632e1a7d4d836040518263ffffffff1660e01b815260040180828152602001915050600060405180830381600087803b15801561360d57600080fd5b505af1158015613621573d6000803e3d6000fd5b5050505061267484836143b6565b60015473ffffffffffffffffffffffffffffffffffffffff1633146136b557604080517f08c379a000000000000000000000000000000000000000000000000000000000815260206004820152601860248201527f50616e63616b65526f757465723a20464f5242494444454e0000000000000000604482015290519081900360640190fd5b600180547fffffffffffffffffffffffff00000000000000000000000000000000000000001673ffffffffffffffffffffffffffffffffffffffff92909216919091179055565b600080824281101561376f57604080517f08c379a000000000000000000000000000000000000000000000000000000000815260206004820152601660248201527f50616e63616b65526f757465723a204558504952454400000000000000000000604482015290519081900360640190fd5b600061379c7f00000000000000000000000000000000000000000000000000000000000000008c8c614667565b604080517f23b872dd00000000000000000000000000000000000000000000000000000000815233600482015273ffffffffffffffffffffffffffffffffffffffff831660248201819052604482018d9052915192935090916323b872dd916064808201926020929091908290030181600087803b15801561381d57600080fd5b505af1158015613831573d6000803e3d6000fd5b505050506040513d602081101561384757600080fd5b5050604080517f89afcb4400000000000000000000000000000000000000000000000000000000815273ffffffffffffffffffffffffffffffffffffffff888116600483015282516000938493928616926389afcb44926024808301939282900301818787803b1580156138ba57600080fd5b505af11580156138ce573d6000803e3d6000fd5b505050506040513d60408110156138e457600080fd5b508051602090910151909250905060006138fe8e8e6154b3565b5090508073ffffffffffffffffffffffffffffffffffffffff168e73ffffffffffffffffffffffffffffffffffffffff161461393b57818361393e565b82825b90975095508a87101561399c576040517f08c379a0000000000000000000000000000000000000000000000000000000008152600401808060200182810382526024815260200180615d1f6024913960400191505060405180910390fd5b898610156139f5576040517f08c379a0000000000000000000000000000000000000000000000000000000008152600401808060200182810382526024815260200180615dde6024913960400191505060405180910390fd5b505050505097509795505050505050565b7f000000000000000000000000000000000000000000000000000000000000000081565b60015473ffffffffffffffffffffffffffffffffffffffff163314613ab057604080517f08c379a000000000000000000000000000000000000000000000000000000000815260206004820152601860248201527f50616e63616b65526f757465723a20464f5242494444454e0000000000000000604482015290519081900360640190fd5b60015461ffff7601000000000000000000000000000000000000000000008204811674010000000000000000000000000000000000000000909204161115613b5957604080517f08c379a000000000000000000000000000000000000000000000000000000000815260206004820152601b60248201527f50616e63616b65526f757465723a20494e56414c49445f464545530000000000604482015290519081900360640190fd5b6001805461ffff90921674010000000000000000000000000000000000000000027fffffffffffffffffffff0000ffffffffffffffffffffffffffffffffffffffff909216919091179055565b73ffffffffffffffffffffffffffffffffffffffff1660009081526020819052604090205490565b6000806000613c1e7f00000000000000000000000000000000000000000000000000000000000000008e7f0000000000000000000000000000000000000000000000000000000000000000614667565b9050600087613c2d578c613c4f565b7fffffffffffffffffffffffffffffffffffffffffffffffffffffffffffffffff5b604080517fd505accf00000000000000000000000000000000000000000000000000000000815233600482015230602482015260448101839052606481018c905260ff8a16608482015260a4810189905260c48101889052905191925073ffffffffffffffffffffffffffffffffffffffff84169163d505accf9160e48082019260009290919082900301818387803b158015613ceb57600080fd5b505af1158015613cff573d6000803e3d6000fd5b50505050613d118e8e8e8e8e8e610fa6565b909f909e509c50505050505050505050505050565b60008060008342811015613d9b57604080517f08c379a000000000000000000000000000000000000000000000000000000000815260206004820152601660248201527f50616e63616b65526f757465723a204558504952454400000000000000000000604482015290519081900360640190fd5b613da98c8c8c8c8c8c615606565b90945092506000613ddb7f00000000000000000000000000000000000000000000000000000000000000008e8e614667565b9050613de98d338388614cd9565b613df58c338387614cd9565b8073ffffffffffffffffffffffffffffffffffffffff16636a627842886040518263ffffffff1660e01b8152600401808273ffffffffffffffffffffffffffffffffffffffff1673ffffffffffffffffffffffffffffffffffffffff168152602001915050602060405180830381600087803b158015613e7457600080fd5b505af1158015613e88573d6000803e3d6000fd5b505050506040513d6020811015613e9e57600080fd5b5051949d939c50939a509198505050505050505050565b60008060008342811015613f2a57604080517f08c379a000000000000000000000000000000000000000000000000000000000815260206004820152601660248201527f50616e63616b65526f757465723a204558504952454400000000000000000000604482015290519081900360640190fd5b613f588a7f00000000000000000000000000000000000000000000000000000000000000008b348c8c615606565b90945092506000613faa7f00000000000000000000000000000000000000000000000000000000000000008c7f0000000000000000000000000000000000000000000000000000000000000000614667565b9050613fb88b338388614cd9565b7f000000000000000000000000000000000000000000000000000000000000000073ffffffffffffffffffffffffffffffffffffffff1663d0e30db0856040518263ffffffff1660e01b81526004016000604051808303818588803b15801561402057600080fd5b505af1158015614034573d6000803e3d6000fd5b50505050507f000000000000000000000000000000000000000000000000000000000000000073ffffffffffffffffffffffffffffffffffffffff1663a9059cbb82866040518363ffffffff1660e01b8152600401808373ffffffffffffffffffffffffffffffffffffffff1673ffffffffffffffffffffffffffffffffffffffff16815260200182815260200192505050602060405180830381600087803b1580156140e057600080fd5b505af11580156140f4573d6000803e3d6000fd5b505050506040513d602081101561410a57600080fd5b505161411257fe5b8073ffffffffffffffffffffffffffffffffffffffff16636a627842886040518263ffffffff1660e01b8152600401808273ffffffffffffffffffffffffffffffffffffffff1673ffffffffffffffffffffffffffffffffffffffff168152602001915050602060405180830381600087803b15801561419157600080fd5b505af11580156141a5573d6000803e3d6000fd5b505050506040513d60208110156141bb57600080fd5b50519250348410156141d3576141d3338534036143b6565b505096509650969350505050565b6000612fcd85858585615907565b6040805173ffffffffffffffffffffffffffffffffffffffff8481166024830152604480830185905283518084039091018152606490920183526020820180517bffffffffffffffffffffffffffffffffffffffffffffffffffffffff167fa9059cbb00000000000000000000000000000000000000000000000000000000178152925182516000946060949389169392918291908083835b602083106142c557805182527fffffffffffffffffffffffffffffffffffffffffffffffffffffffffffffffe09092019160209182019101614288565b6001836020036101000a0380198251168184511680821785525050505050509050019150506000604051808303816000865af19150503d8060008114614327576040519150601f19603f3d011682016040523d82523d6000602084013e61432c565b606091505b509150915081801561435a57508051158061435a575080806020019051602081101561435757600080fd5b50515b6143af576040517f08c379a000000000000000000000000000000000000000000000000000000000815260040180806020018281038252602d815260200180615d66602d913960400191505060405180910390fd5b5050505050565b6040805160008082526020820190925273ffffffffffffffffffffffffffffffffffffffff84169083906040518082805190602001908083835b6020831061442d57805182527fffffffffffffffffffffffffffffffffffffffffffffffffffffffffffffffe090920191602091820191016143f0565b6001836020036101000a03801982511681845116808217855250505050505090500191505060006040518083038185875af1925050503d806000811461448f576040519150601f19603f3d011682016040523d82523d6000602084013e614494565b606091505b50509050806144ee576040517f08c379a0000000000000000000000000000000000000000000000000000000008152600401808060200182810382526034815260200180615c9f6034913960400191505060405180910390fd5b505050565b60015460009061ffff76010000000000000000000000000000000000000000000082048116916145439186917401000000000000000000000000000000000000000090041663ffffffff615a2e16565b8161454a57fe5b049050600061455f848363ffffffff614af916565b905073ffffffffffffffffffffffffffffffffffffffff83161580614599575073ffffffffffffffffffffffffffffffffffffffff831632145b156146035760015473ffffffffffffffffffffffffffffffffffffffff166000908152602081905260409020546145d6908263ffffffff615ab416565b60015473ffffffffffffffffffffffffffffffffffffffff16600090815260208190526040902055614660565b73ffffffffffffffffffffffffffffffffffffffff8316600090815260208190526040902054614639908263ffffffff615ab416565b73ffffffffffffffffffffffffffffffffffffffff84166000908152602081905260409020555b5092915050565b600080600061467685856154b3565b604080517fffffffffffffffffffffffffffffffffffffffff000000000000000000000000606094851b811660208084019190915293851b81166034830152825160288184030181526048830184528051908501207fff0000000000000000000000000000000000000000000000000000000000000060688401529a90941b9093166069840152607d8301989098527fa397b895e2dc7d1de668d61a68491e4e3129ef265fb496aa43b543cad7e195a6609d808401919091528851808403909101815260bd909201909752805196019590952095945050505050565b60005b6001845103811015614af35760008085838151811061477057fe5b602002602001015186846001018151811061478757fe5b602002602001015191509150600061479f83836154b3565b50905060006147cf7f00000000000000000000000000000000000000000000000000000000000000008585614667565b90506000806000808473ffffffffffffffffffffffffffffffffffffffff16630902f1ac6040518163ffffffff1660e01b815260040160606040518083038186803b15801561481d57600080fd5b505afa158015614831573d6000803e3d6000fd5b505050506040513d606081101561484757600080fd5b5080516020909101516dffffffffffffffffffffffffffff918216935016905060008073ffffffffffffffffffffffffffffffffffffffff8a811690891614614891578284614894565b83835b91509150614919828b73ffffffffffffffffffffffffffffffffffffffff166370a082318a6040518263ffffffff1660e01b8152600401808273ffffffffffffffffffffffffffffffffffffffff1673ffffffffffffffffffffffffffffffffffffffff16815260200191505060206040518083038186803b15801561163657600080fd5b95506149278683838f615907565b9450505050506000808573ffffffffffffffffffffffffffffffffffffffff168873ffffffffffffffffffffffffffffffffffffffff161461496b5782600061496f565b6000835b91509150600060028d51038a10614986578b6149c7565b6149c77f0000000000000000000000000000000000000000000000000000000000000000898f8d600201815181106149ba57fe5b6020026020010151614667565b60408051600080825260208201928390527f022c0d9f000000000000000000000000000000000000000000000000000000008352602482018781526044830187905273ffffffffffffffffffffffffffffffffffffffff8086166064850152608060848501908152845160a48601819052969750908c169563022c0d9f958a958a958a9591949193919260c486019290918190849084905b83811015614a77578181015183820152602001614a5f565b50505050905090810190601f168015614aa45780820380516001836020036101000a031916815260200191505b5095505050505050600060405180830381600087803b158015614ac657600080fd5b505af1158015614ada573d6000803e3d6000fd5b50506001909b019a506147559950505050505050505050565b50505050565b80820382811115614b6b57604080517f08c379a000000000000000000000000000000000000000000000000000000000815260206004820152601560248201527f64732d6d6174682d7375622d756e646572666c6f770000000000000000000000604482015290519081900360640190fd5b92915050565b6060600283511015614be457604080517f08c379a000000000000000000000000000000000000000000000000000000000815260206004820152601c60248201527f50616e63616b654c6962726172793a20494e56414c49445f5041544800000000604482015290519081900360640190fd5b825167ffffffffffffffff81118015614bfc57600080fd5b50604051908082528060200260200182016040528015614c26578160200160208202803683370190505b5090508381600081518110614c3757fe5b60200260200101818152505060005b6001845103811015614cd057600080614c8988878581518110614c6557fe5b6020026020010151888660010181518110614c7c57fe5b6020026020010151615b26565b91509150614cac848481518110614c9c57fe5b6020026020010151838388615907565b848460010181518110614cbb57fe5b60209081029190910101525050600101614c46565b50949350505050565b6040805173ffffffffffffffffffffffffffffffffffffffff85811660248301528481166044830152606480830185905283518084039091018152608490920183526020820180517bffffffffffffffffffffffffffffffffffffffffffffffffffffffff167f23b872dd0000000000000000000000000000000000000000000000000000000017815292518251600094606094938a169392918291908083835b60208310614db757805182527fffffffffffffffffffffffffffffffffffffffffffffffffffffffffffffffe09092019160209182019101614d7a565b6001836020036101000a0380198251168184511680821785525050505050509050019150506000604051808303816000865af19150503d8060008114614e19576040519150601f19603f3d011682016040523d82523d6000602084013e614e1e565b606091505b5091509150818015614e4c575080511580614e4c5750808060200190516020811015614e4957600080fd5b50515b614ea1576040517f08c379a0000000000000000000000000000000000000000000000000000000008152600401808060200182810382526031815260200180615c6e6031913960400191505060405180910390fd5b505050505050565b60005b6001835103811015614af357600080848381518110614ec757fe5b6020026020010151858460010181518110614ede57fe5b6020026020010151915091506000614ef683836154b3565b5090506000878560010181518110614f0a57fe5b602002602001015190506000808373ffffffffffffffffffffffffffffffffffffffff168673ffffffffffffffffffffffffffffffffffffffff1614614f5257826000614f56565b6000835b91509150600060028a51038810614f6d5788614fa1565b614fa17f0000000000000000000000000000000000000000000000000000000000000000878c8b600201815181106149ba57fe5b9050614fce7f00000000000000000000000000000000000000000000000000000000000000008888614667565b73ffffffffffffffffffffffffffffffffffffffff1663022c0d9f84848460006040519080825280601f01601f191660200182016040528015615018576020820181803683370190505b506040518563ffffffff1660e01b8152600401808581526020018481526020018373ffffffffffffffffffffffffffffffffffffffff1673ffffffffffffffffffffffffffffffffffffffff16815260200180602001828103825283818151815260200191508051906020019080838360005b838110156150a357818101518382015260200161508b565b50505050905090810190601f1680156150d05780820380516001836020036101000a031916815260200191505b5095505050505050600060405180830381600087803b1580156150f257600080fd5b505af1158015615106573d6000803e3d6000fd5b505060019099019850614eac975050505050505050565b606060028351101561519057604080517f08c379a000000000000000000000000000000000000000000000000000000000815260206004820152601c60248201527f50616e63616b654c6962726172793a20494e56414c49445f5041544800000000604482015290519081900360640190fd5b825167ffffffffffffffff811180156151a857600080fd5b506040519080825280602002602001820160405280156151d2578160200160208202803683370190505b50905083816001835103815181106151e657fe5b602090810291909101015282517fffffffffffffffffffffffffffffffffffffffffffffffffffffffffffffffff015b8015614cd0576000806152468887600186038151811061523257fe5b6020026020010151888681518110614c7c57fe5b9150915061526984848151811061525957fe5b60200260200101518383886152ac565b84600185038151811061527857fe5b602090810291909101015250507fffffffffffffffffffffffffffffffffffffffffffffffffffffffffffffffff01615216565b6000808511615306576040517f08c379a000000000000000000000000000000000000000000000000000000000815260040180806020018281038252602a815260200180615c44602a913960400191505060405180910390fd5b6000841180156153165750600083115b61536b576040517f08c379a0000000000000000000000000000000000000000000000000000000008152600401808060200182810382526026815260200180615db86026913960400191505060405180910390fd5b600061538f612710615383878963ffffffff615a2e16565b9063ffffffff615a2e16565b905060006153ab61ffff8516615383878a63ffffffff614af916565b90506153c860018284816153bb57fe5b049063ffffffff615ab416565b979650505050505050565b600080841161542d576040517f08c379a0000000000000000000000000000000000000000000000000000000008152600401808060200182810382526023815260200180615d436023913960400191505060405180910390fd5b60008311801561543d5750600082115b615492576040517f08c379a0000000000000000000000000000000000000000000000000000000008152600401808060200182810382526026815260200180615db86026913960400191505060405180910390fd5b826154a3858463ffffffff615a2e16565b816154aa57fe5b04949350505050565b6000808273ffffffffffffffffffffffffffffffffffffffff168473ffffffffffffffffffffffffffffffffffffffff16141561553b576040517f08c379a0000000000000000000000000000000000000000000000000000000008152600401808060200182810382526023815260200180615cfc6023913960400191505060405180910390fd5b8273ffffffffffffffffffffffffffffffffffffffff168473ffffffffffffffffffffffffffffffffffffffff1610615575578284615578565b83835b909250905073ffffffffffffffffffffffffffffffffffffffff82166155ff57604080517f08c379a000000000000000000000000000000000000000000000000000000000815260206004820152601c60248201527f50616e63616b654c6962726172793a205a45524f5f4144445245535300000000604482015290519081900360640190fd5b9250929050565b604080517fe6a4390500000000000000000000000000000000000000000000000000000000815273ffffffffffffffffffffffffffffffffffffffff888116600483015287811660248301529151600092839283927f00000000000000000000000000000000000000000000000000000000000000009092169163e6a4390591604480820192602092909190829003018186803b1580156156a657600080fd5b505afa1580156156ba573d6000803e3d6000fd5b505050506040513d60208110156156d057600080fd5b505173ffffffffffffffffffffffffffffffffffffffff1614156157b657604080517fc9c6539600000000000000000000000000000000000000000000000000000000815273ffffffffffffffffffffffffffffffffffffffff8a81166004830152898116602483015291517f00000000000000000000000000000000000000000000000000000000000000009092169163c9c65396916044808201926020929091908290030181600087803b15801561578957600080fd5b505af115801561579d573d6000803e3d6000fd5b505050506040513d60208110156157b357600080fd5b50505b6000806157e47f00000000000000000000000000000000000000000000000000000000000000008b8b615b26565b915091508160001480156157f6575080155b15615806578793508692506158fa565b60006158138984846153d3565b90508781116158805785811015615875576040517f08c379a0000000000000000000000000000000000000000000000000000000008152600401808060200182810382526024815260200180615dde6024913960400191505060405180910390fd5b8894509250826158f8565b600061588d8984866153d3565b90508981111561589957fe5b878110156158f2576040517f08c379a0000000000000000000000000000000000000000000000000000000008152600401808060200182810382526024815260200180615d1f6024913960400191505060405180910390fd5b94508793505b505b5050965096945050505050565b6000808511615961576040517f08c379a0000000000000000000000000000000000000000000000000000000008152600401808060200182810382526029815260200180615c1b6029913960400191505060405180910390fd5b6000841180156159715750600083115b6159c6576040517f08c379a0000000000000000000000000000000000000000000000000000000008152600401808060200182810382526026815260200180615db86026913960400191505060405180910390fd5b60006159dc8661ffff851663ffffffff615a2e16565b905060006159f0828663ffffffff615a2e16565b90506000615a1683615a0a8961271063ffffffff615a2e16565b9063ffffffff615ab416565b9050808281615a2157fe5b0498975050505050505050565b6000811580615a4957505080820282828281615a4657fe5b04145b614b6b57604080517f08c379a000000000000000000000000000000000000000000000000000000000815260206004820152601460248201527f64732d6d6174682d6d756c2d6f766572666c6f77000000000000000000000000604482015290519081900360640190fd5b80820182811015614b6b57604080517f08c379a000000000000000000000000000000000000000000000000000000000815260206004820152601460248201527f64732d6d6174682d6164642d6f766572666c6f77000000000000000000000000604482015290519081900360640190fd5b6000806000615b3585856154b3565b509050615b43868686614667565b50600080615b52888888614667565b73ffffffffffffffffffffffffffffffffffffffff16630902f1ac6040518163ffffffff1660e01b815260040160606040518083038186803b158015615b9757600080fd5b505afa158015615bab573d6000803e3d6000fd5b505050506040513d6060811015615bc157600080fd5b5080516020909101516dffffffffffffffffffffffffffff918216935016905073ffffffffffffffffffffffffffffffffffffffff87811690841614615c08578082615c0b565b81815b9099909850965050505050505056fe50616e63616b654c6962726172793a20494e53554646494349454e545f494e5055545f414d4f554e5450616e63616b654c6962726172793a20494e53554646494349454e545f4f55545055545f414d4f554e545472616e7366657248656c7065723a3a7472616e7366657246726f6d3a207472616e7366657246726f6d206661696c65645472616e7366657248656c7065723a3a736166655472616e736665724554483a20455448207472616e73666572206661696c656450616e63616b65526f757465723a20494e53554646494349454e545f4f55545055545f414d4f554e5450616e63616b654c6962726172793a204944454e544943414c5f41444452455353455350616e63616b65526f757465723a20494e53554646494349454e545f415f414d4f554e5450616e63616b654c6962726172793a20494e53554646494349454e545f414d4f554e545472616e7366657248656c7065723a3a736166655472616e736665723a207472616e73666572206661696c656450616e63616b65526f757465723a204558434553534956455f494e5055545f414d4f554e5450616e63616b654c6962726172793a20494e53554646494349454e545f4c495155494449545950616e63616b65526f757465723a20494e53554646494349454e545f425f414d4f554e54a26469706673582212205f3289a0fa337ff8551f6d53b4e900552370e54ad73f62ffab942e7429a0c34a64736f6c63430006060033",
  "linkReferences": {},
  "deployedLinkReferences": {}
}